{
  "_format": "hh-sol-artifact-1",
  "contractName": "Forwarder",
  "sourceName": "contracts/Forwarder.sol",
  "abi": [
    {
      "inputs": [],
      "stateMutability": "nonpayable",
      "type": "constructor"
    },
    {
      "anonymous": false,
      "inputs": [
        {
          "indexed": false,
          "internalType": "address",
          "name": "from",
          "type": "address"
        },
        {
          "indexed": false,
          "internalType": "uint256",
          "name": "value",
          "type": "uint256"
        },
        {
          "indexed": false,
          "internalType": "bytes",
          "name": "data",
          "type": "bytes"
        }
      ],
      "name": "ForwarderDeposited",
      "type": "event"
    },
    {
      "anonymous": false,
      "inputs": [
        {
          "indexed": false,
          "internalType": "address",
          "name": "tokenContractAddress",
          "type": "address"
        },
        {
          "indexed": false,
          "internalType": "uint256",
          "name": "value",
          "type": "uint256"
        }
      ],
      "name": "TokensFlushed",
      "type": "event"
    },
    {
      "stateMutability": "payable",
      "type": "fallback"
    },
    {
      "inputs": [],
      "name": "flush",
      "outputs": [],
      "stateMutability": "nonpayable",
      "type": "function"
    },
    {
      "inputs": [
        {
          "internalType": "address",
          "name": "tokenContractAddress",
          "type": "address"
        }
      ],
      "name": "flushTokens",
      "outputs": [],
      "stateMutability": "nonpayable",
      "type": "function"
    },
    {
      "inputs": [],
      "name": "parentAddress",
      "outputs": [
        {
          "internalType": "address",
          "name": "",
          "type": "address"
        }
      ],
      "stateMutability": "view",
      "type": "function"
    },
    {
      "stateMutability": "payable",
      "type": "receive"
    }
  ],
  "bytecode": "0x608060405234801561001057600080fd5b50336000806101000a81548173ffffffffffffffffffffffffffffffffffffffff021916908373ffffffffffffffffffffffffffffffffffffffff160217905550610a26806100606000396000f3fe6080604052600436106100375760003560e01c8062821de3146101925780633ef13367146101bd5780636b9f96ea146101e65761007f565b3661007f57600061007d576040517f08c379a0000000000000000000000000000000000000000000000000000000008152600401610074906105b0565b60405180910390fd5b005b60008060009054906101000a900473ffffffffffffffffffffffffffffffffffffffff1673ffffffffffffffffffffffffffffffffffffffff16346000366040516100cb92919061060f565b60006040518083038185875af1925050503d8060008114610108576040519150601f19603f3d011682016040523d82523d6000602084013e61010d565b606091505b5050905080610151576040517f08c379a0000000000000000000000000000000000000000000000000000000008152600401610148906105b0565b60405180910390fd5b7f69b31548dea9b3b707b4dff357d326e3e9348b24e7a6080a218a6edeeec48f9b333460003660405161018794939291906106d1565b60405180910390a150005b34801561019e57600080fd5b506101a76101fd565b6040516101b49190610711565b60405180910390f35b3480156101c957600080fd5b506101e460048036038101906101df919061075d565b610221565b005b3480156101f257600080fd5b506101fb610483565b005b60008054906101000a900473ffffffffffffffffffffffffffffffffffffffff1681565b60008054906101000a900473ffffffffffffffffffffffffffffffffffffffff1673ffffffffffffffffffffffffffffffffffffffff163373ffffffffffffffffffffffffffffffffffffffff16146102af576040517f08c379a00000000000000000000000000000000000000000000000000000000081526004016102a6906107d6565b60405180910390fd5b6000819050600030905060008273ffffffffffffffffffffffffffffffffffffffff166370a08231836040518263ffffffff1660e01b81526004016102f49190610711565b60206040518083038186803b15801561030c57600080fd5b505afa158015610320573d6000803e3d6000fd5b505050506040513d601f19601f820116820180604052508101906103449190610822565b9050600081141561035757505050610480565b8273ffffffffffffffffffffffffffffffffffffffff1663a9059cbb60008054906101000a900473ffffffffffffffffffffffffffffffffffffffff16836040518363ffffffff1660e01b81526004016103b292919061084f565b602060405180830381600087803b1580156103cc57600080fd5b505af11580156103e0573d6000803e3d6000fd5b505050506040513d601f19601f8201168201806040525081019061040491906108b0565b610443576040517f08c379a000000000000000000000000000000000000000000000000000000000815260040161043a90610929565b60405180910390fd5b7f9401e4e79c19cbe2bd774cb70a94ba660e6718be1bac1298ab3b07f454a60821848260405161047492919061084f565b60405180910390a15050505b50565b60008060009054906101000a900473ffffffffffffffffffffffffffffffffffffffff1673ffffffffffffffffffffffffffffffffffffffff16476040516104ca9061096f565b60006040518083038185875af1925050503d8060008114610507576040519150601f19603f3d011682016040523d82523d6000602084013e61050c565b606091505b5050905080610550576040517f08c379a0000000000000000000000000000000000000000000000000000000008152600401610547906109d0565b60405180910390fd5b50565b600082825260208201905092915050565b7f2172656365697665000000000000000000000000000000000000000000000000600082015250565b600061059a600883610553565b91506105a582610564565b602082019050919050565b600060208201905081810360008301526105c98161058d565b9050919050565b600081905092915050565b82818337600083830152505050565b60006105f683856105d0565b93506106038385846105db565b82840190509392505050565b600061061c8284866105ea565b91508190509392505050565b600073ffffffffffffffffffffffffffffffffffffffff82169050919050565b600061065382610628565b9050919050565b61066381610648565b82525050565b6000819050919050565b61067c81610669565b82525050565b600082825260208201905092915050565b6000601f19601f8301169050919050565b60006106b08385610682565b93506106bd8385846105db565b6106c683610693565b840190509392505050565b60006060820190506106e6600083018761065a565b6106f36020830186610673565b81810360408301526107068184866106a4565b905095945050505050565b6000602082019050610726600083018461065a565b92915050565b600080fd5b61073a81610648565b811461074557600080fd5b50565b60008135905061075781610731565b92915050565b6000602082840312156107735761077261072c565b5b600061078184828501610748565b91505092915050565b7f21706172656e7400000000000000000000000000000000000000000000000000600082015250565b60006107c0600783610553565b91506107cb8261078a565b602082019050919050565b600060208201905081810360008301526107ef816107b3565b9050919050565b6107ff81610669565b811461080a57600080fd5b50565b60008151905061081c816107f6565b92915050565b6000602082840312156108385761083761072c565b5b60006108468482850161080d565b91505092915050565b6000604082019050610864600083018561065a565b6108716020830184610673565b9392505050565b60008115159050919050565b61088d81610878565b811461089857600080fd5b50565b6000815190506108aa81610884565b92915050565b6000602082840312156108c6576108c561072c565b5b60006108d48482850161089b565b91505092915050565b7f217472616e736665720000000000000000000000000000000000000000000000600082015250565b6000610913600983610553565b915061091e826108dd565b602082019050919050565b6000602082019050818103600083015261094281610906565b9050919050565b50565b60006109596000836105d0565b915061096482610949565b600082019050919050565b600061097a8261094c565b9150819050919050565b7f21666c7573680000000000000000000000000000000000000000000000000000600082015250565b60006109ba600683610553565b91506109c582610984565b602082019050919050565b600060208201905081810360008301526109e9816109ad565b905091905056fea2646970667358221220919bd41ed1b45a40b58e3a58152732f668941cb7651c9e40b9816edae01e5b5464736f6c63430008090033",
  "linkReferences": {},
  "deployedLinkReferences": {}
}