{
  "_format": "hh-sol-artifact-1",
  "contractName": "WalletSimple",
  "sourceName": "contracts/WalletSimple.sol",
  "abi": [
    {
      "inputs": [
        {
          "internalType": "address[]",
          "name": "allowedSigners",
          "type": "address[]"
        }
      ],
      "stateMutability": "nonpayable",
      "type": "constructor"
    },
    {
      "anonymous": false,
      "inputs": [
        {
          "indexed": false,
          "internalType": "address",
          "name": "",
          "type": "address"
        },
        {
          "indexed": false,
          "internalType": "address",
          "name": "",
          "type": "address"
        },
        {
          "indexed": false,
          "internalType": "uint256",
          "name": "",
          "type": "uint256"
        }
      ],
      "name": "CreateForwarder",
      "type": "event"
    },
    {
      "anonymous": false,
      "inputs": [
        {
          "indexed": false,
          "internalType": "address",
          "name": "from",
          "type": "address"
        },
        {
          "indexed": false,
          "internalType": "uint256",
          "name": "value",
          "type": "uint256"
        },
        {
          "indexed": false,
          "internalType": "bytes",
          "name": "data",
          "type": "bytes"
        }
      ],
      "name": "Deposited",
      "type": "event"
    },
    {
      "anonymous": false,
      "inputs": [
        {
          "indexed": false,
          "internalType": "address",
          "name": "msgSender",
          "type": "address"
        }
      ],
      "name": "SafeModeActivated",
      "type": "event"
    },
    {
      "anonymous": false,
      "inputs": [
        {
          "indexed": false,
          "internalType": "address",
          "name": "msgSender",
          "type": "address"
        },
        {
          "indexed": false,
          "internalType": "address",
          "name": "otherSigner",
          "type": "address"
        },
        {
          "indexed": false,
          "internalType": "bytes32",
          "name": "operation",
          "type": "bytes32"
        },
        {
          "indexed": false,
          "internalType": "address",
          "name": "toAddress",
          "type": "address"
        },
        {
          "indexed": false,
          "internalType": "uint256",
          "name": "value",
          "type": "uint256"
        },
        {
          "indexed": false,
          "internalType": "address",
          "name": "tokenContractAddress",
          "type": "address"
        }
      ],
      "name": "TokenTransacted",
      "type": "event"
    },
    {
      "anonymous": false,
      "inputs": [
        {
          "indexed": false,
          "internalType": "address",
          "name": "msgSender",
          "type": "address"
        },
        {
          "indexed": false,
          "internalType": "address",
          "name": "otherSigner",
          "type": "address"
        },
        {
          "indexed": false,
          "internalType": "bytes32",
          "name": "operation",
          "type": "bytes32"
        },
        {
          "indexed": false,
          "internalType": "address",
          "name": "toAddress",
          "type": "address"
        },
        {
          "indexed": false,
          "internalType": "uint256",
          "name": "value",
          "type": "uint256"
        },
        {
          "indexed": false,
          "internalType": "bytes",
          "name": "data",
          "type": "bytes"
        }
      ],
      "name": "Transacted",
      "type": "event"
    },
    {
      "stateMutability": "payable",
      "type": "fallback"
    },
    {
      "inputs": [],
      "name": "activateSafeMode",
      "outputs": [],
      "stateMutability": "nonpayable",
      "type": "function"
    },
    {
      "inputs": [
        {
          "internalType": "uint256",
          "name": "idx",
          "type": "uint256"
        }
      ],
      "name": "createForwarder",
      "outputs": [
        {
          "internalType": "address",
          "name": "forwarder",
          "type": "address"
        }
      ],
      "stateMutability": "nonpayable",
      "type": "function"
    },
    {
      "inputs": [
        {
          "internalType": "address payable",
          "name": "forwarderAddress",
          "type": "address"
        },
        {
          "internalType": "address",
          "name": "tokenContractAddress",
          "type": "address"
        }
      ],
      "name": "flushForwarderTokens",
      "outputs": [],
      "stateMutability": "nonpayable",
      "type": "function"
    },
    {
      "inputs": [],
      "name": "getNextSequenceId",
      "outputs": [
        {
          "internalType": "uint256",
          "name": "",
          "type": "uint256"
        }
      ],
      "stateMutability": "view",
      "type": "function"
    },
    {
      "inputs": [
        {
          "internalType": "address",
          "name": "signer",
          "type": "address"
        }
      ],
      "name": "isSigner",
      "outputs": [
        {
          "internalType": "bool",
          "name": "",
          "type": "bool"
        }
      ],
      "stateMutability": "view",
      "type": "function"
    },
    {
      "inputs": [],
      "name": "safeMode",
      "outputs": [
        {
          "internalType": "bool",
          "name": "",
          "type": "bool"
        }
      ],
      "stateMutability": "view",
      "type": "function"
    },
    {
      "inputs": [
        {
          "internalType": "address",
          "name": "toAddress",
          "type": "address"
        },
        {
          "internalType": "uint256",
          "name": "value",
          "type": "uint256"
        },
        {
          "internalType": "bytes",
          "name": "data",
          "type": "bytes"
        },
        {
          "internalType": "uint256",
          "name": "expireTime",
          "type": "uint256"
        },
        {
          "internalType": "uint256",
          "name": "sequenceId",
          "type": "uint256"
        },
        {
          "internalType": "bytes",
          "name": "signature",
          "type": "bytes"
        }
      ],
      "name": "sendMultiSig",
      "outputs": [],
      "stateMutability": "nonpayable",
      "type": "function"
    },
    {
      "inputs": [
        {
          "internalType": "address",
          "name": "toAddress",
          "type": "address"
        },
        {
          "internalType": "uint256",
          "name": "value",
          "type": "uint256"
        },
        {
          "internalType": "address",
          "name": "tokenContractAddress",
          "type": "address"
        },
        {
          "internalType": "uint256",
          "name": "expireTime",
          "type": "uint256"
        },
        {
          "internalType": "uint256",
          "name": "sequenceId",
          "type": "uint256"
        },
        {
          "internalType": "bytes",
          "name": "signature",
          "type": "bytes"
        }
      ],
      "name": "sendMultiSigToken",
      "outputs": [],
      "stateMutability": "nonpayable",
      "type": "function"
    },
    {
      "inputs": [
        {
          "internalType": "uint256",
          "name": "",
          "type": "uint256"
        }
      ],
      "name": "signers",
      "outputs": [
        {
          "internalType": "address",
          "name": "",
          "type": "address"
        }
      ],
      "stateMutability": "view",
      "type": "function"
    },
    {
      "stateMutability": "payable",
      "type": "receive"
    }
  ],
  "bytecode": "0x60806040526000600160006101000a81548160ff0219169083151502179055503480156200002c57600080fd5b5060405162002c9338038062002c93833981810160405281019062000052919062000355565b600381511462000099576040517f08c379a0000000000000000000000000000000000000000000000000000000008152600401620000909062000407565b60405180910390fd5b8060009080519060200190620000b1929190620000b9565b505062000429565b82805482825590600052602060002090810192821562000135579160200282015b82811115620001345782518260006101000a81548173ffffffffffffffffffffffffffffffffffffffff021916908373ffffffffffffffffffffffffffffffffffffffff16021790555091602001919060010190620000da565b5b50905062000144919062000148565b5090565b5b808211156200016357600081600090555060010162000149565b5090565b6000604051905090565b600080fd5b600080fd5b600080fd5b6000601f19601f8301169050919050565b7f4e487b7100000000000000000000000000000000000000000000000000000000600052604160045260246000fd5b620001cb8262000180565b810181811067ffffffffffffffff82111715620001ed57620001ec62000191565b5b80604052505050565b60006200020262000167565b9050620002108282620001c0565b919050565b600067ffffffffffffffff82111562000233576200023262000191565b5b602082029050602081019050919050565b600080fd5b600073ffffffffffffffffffffffffffffffffffffffff82169050919050565b6000620002768262000249565b9050919050565b620002888162000269565b81146200029457600080fd5b50565b600081519050620002a8816200027d565b92915050565b6000620002c5620002bf8462000215565b620001f6565b90508083825260208201905060208402830185811115620002eb57620002ea62000244565b5b835b8181101562000318578062000303888262000297565b845260208401935050602081019050620002ed565b5050509392505050565b600082601f8301126200033a57620003396200017b565b5b81516200034c848260208601620002ae565b91505092915050565b6000602082840312156200036e576200036d62000171565b5b600082015167ffffffffffffffff8111156200038f576200038e62000176565b5b6200039d8482850162000322565b91505092915050565b600082825260208201905092915050565b7f216c656e67746800000000000000000000000000000000000000000000000000600082015250565b6000620003ef600783620003a6565b9150620003fc82620003b7565b602082019050919050565b600060208201905081810360008301526200042281620003e0565b9050919050565b61285a80620004396000396000f3fe60806040526004361061008a5760003560e01c80637df73e27116100595780637df73e27146101cc578063a0b7967b14610209578063a3e7dd3f14610234578063abe3219c14610271578063fc0f392d1461029c576100ca565b80630dcd7a6c146101145780632079fb9a1461013d5780632da034091461017a57806339125215146101a3576100ca565b366100ca576040517f08c379a00000000000000000000000000000000000000000000000000000000081526004016100c190610f20565b60405180910390fd5b6000341115610112577f6e89d517057028190560dd200cf6bf792842861353d1173761dfa362e1c133f033346000366040516101099493929190610ff8565b60405180910390a15b005b34801561012057600080fd5b5061013b600480360381019061013691906110ff565b6102b3565b005b34801561014957600080fd5b50610164600480360381019061015f91906111ae565b610507565b60405161017191906111db565b60405180910390f35b34801561018657600080fd5b506101a1600480360381019061019c9190611234565b610546565b005b3480156101af57600080fd5b506101ca60048036038101906101c59190611274565b610603565b005b3480156101d857600080fd5b506101f360048036038101906101ee9190611343565b6107d5565b604051610200919061138b565b60405180910390f35b34801561021557600080fd5b5061021e610884565b60405161022b91906113a6565b60405180910390f35b34801561024057600080fd5b5061025b600480360381019061025691906111ae565b6108f4565b60405161026891906111db565b60405180910390f35b34801561027d57600080fd5b506102866109dc565b604051610293919061138b565b60405180910390f35b3480156102a857600080fd5b506102b16109ef565b005b6102bc336107d5565b6102fb576040517f08c379a00000000000000000000000000000000000000000000000000000000081526004016102f29061140d565b60405180910390fd5b600087878787876040516020016103169594939291906114ed565b60405160208183030381529060405280519060200120905060006040518060400160405280601c81526020017f19457468657265756d205369676e6564204d6573736167653a0a3332000000008152509050808260405160200161037b9291906115fc565b60405160208183030381529060405280519060200120915060006103e68a8487878080601f016020809104026020016040519081016040528093929190818152602001838380828437600081840152601f19601f820116905080830192505050505050508a8a610a8a565b905060008890508073ffffffffffffffffffffffffffffffffffffffff1663a9059cbb8c8c6040518363ffffffff1660e01b8152600401610428929190611624565b602060405180830381600087803b15801561044257600080fd5b505af1158015610456573d6000803e3d6000fd5b505050506040513d601f19601f8201168201806040525081019061047a9190611679565b6104b9576040517f08c379a00000000000000000000000000000000000000000000000000000000081526004016104b0906116f2565b60405180910390fd5b7ff3574a20a6defd7fc26917e8013cdd578db5eaa4d9a3eb54f2bb0983ad8ab40d3383868e8e8e6040516104f296959493929190611721565b60405180910390a15050505050505050505050565b6000818154811061051757600080fd5b906000526020600020016000915054906101000a900473ffffffffffffffffffffffffffffffffffffffff1681565b61054f336107d5565b61058e576040517f08c379a00000000000000000000000000000000000000000000000000000000081526004016105859061140d565b60405180910390fd5b60008290508073ffffffffffffffffffffffffffffffffffffffff16633ef13367836040518263ffffffff1660e01b81526004016105cc91906111db565b600060405180830381600087803b1580156105e657600080fd5b505af11580156105fa573d6000803e3d6000fd5b50505050505050565b61060c336107d5565b61064b576040517f08c379a00000000000000000000000000000000000000000000000000000000081526004016106429061140d565b60405180910390fd5b6000888888888888604051602001610668969594939291906117f3565b60405160208183030381529060405280519060200120905060006106d38a8386868080601f016020809104026020016040519081016040528093929190818152602001838380828437600081840152601f19601f820116905080830192505050505050508989610a8a565b905060008a73ffffffffffffffffffffffffffffffffffffffff168a8a8a6040516106ff92919061185b565b60006040518083038185875af1925050503d806000811461073c576040519150601f19603f3d011682016040523d82523d6000602084013e610741565b606091505b5050905080610785576040517f08c379a000000000000000000000000000000000000000000000000000000000815260040161077c906118c0565b60405180910390fd5b7f59bed9ab5d78073465dd642a9e3e76dfdb7d53bcae9d09df7d0b8f5234d5a8063383858e8e8e8e6040516107c097969594939291906118e0565b60405180910390a15050505050505050505050565b600080600090505b600080549050811015610879578273ffffffffffffffffffffffffffffffffffffffff16600082815481106108155761081461194a565b5b9060005260206000200160009054906101000a900473ffffffffffffffffffffffffffffffffffffffff1673ffffffffffffffffffffffffffffffffffffffff16141561086657600191505061087f565b8080610871906119a8565b9150506107dd565b50600090505b919050565b6000806000905060005b600a8110156108e05781600282600a81106108ac576108ab61194a565b5b015411156108cd57600281600a81106108c8576108c761194a565b5b015491505b80806108d8906119a8565b91505061088e565b506001816108ee91906119f1565b91505090565b60006108ff336107d5565b61093e576040517f08c379a00000000000000000000000000000000000000000000000000000000081526004016109359061140d565b60405180910390fd5b60003383604051602001610953929190611624565b6040516020818303038152906040528051906020012090508060405161097890610eb6565b8190604051809103906000f5905080158015610998573d6000803e3d6000fd5b5091507f6d3143546217e695d3095233b1d3d2cb53b68b50c2893db44ead08a7dcc0b0808233856040516109ce93929190611a47565b60405180910390a150919050565b600160009054906101000a900460ff1681565b6109f8336107d5565b610a37576040517f08c379a0000000000000000000000000000000000000000000000000000000008152600401610a2e9061140d565b60405180910390fd5b60018060006101000a81548160ff0219169083151502179055507f0909e8f76a4fd3e970f2eaef56c0ee6dfaf8b87c5b8d3f56ffce78e825a9115733604051610a8091906111db565b60405180910390a1565b600080610a978686610c0b565b9050600160009054906101000a900460ff168015610abb5750610ab9876107d5565b155b15610afb576040517f08c379a0000000000000000000000000000000000000000000000000000000008152600401610af290611aca565b60405180910390fd5b42841015610b3e576040517f08c379a0000000000000000000000000000000000000000000000000000000008152600401610b3590611b36565b60405180910390fd5b610b4783610ce4565b610b50816107d5565b610b8f576040517f08c379a0000000000000000000000000000000000000000000000000000000008152600401610b8690611aca565b60405180910390fd5b3373ffffffffffffffffffffffffffffffffffffffff168173ffffffffffffffffffffffffffffffffffffffff161415610bfe576040517f08c379a0000000000000000000000000000000000000000000000000000000008152600401610bf590611ba2565b60405180910390fd5b8091505095945050505050565b60006041825114610c51576040517f08c379a0000000000000000000000000000000000000000000000000000000008152600401610c4890611c0e565b60405180910390fd5b6000806000602085015192506040850151915060ff6041860151169050601b8160ff161015610c8a57601b81610c879190611c3b565b90505b60018682858560405160008152602001604052604051610cad9493929190611c81565b6020604051602081039080840390855afa158015610ccf573d6000803e3d6000fd5b50505060206040510351935050505092915050565b610ced336107d5565b610d2c576040517f08c379a0000000000000000000000000000000000000000000000000000000008152600401610d239061140d565b60405180910390fd5b6000805b600a811015610dda5782600282600a8110610d4e57610d4d61194a565b5b01541415610d91576040517f08c379a0000000000000000000000000000000000000000000000000000000008152600401610d8890611d12565b60405180910390fd5b600282600a8110610da557610da461194a565b5b0154600282600a8110610dbb57610dba61194a565b5b01541015610dc7578091505b8080610dd2906119a8565b915050610d30565b50600281600a8110610def57610dee61194a565b5b0154821015610e33576040517f08c379a0000000000000000000000000000000000000000000000000000000008152600401610e2a90611d7e565b60405180910390fd5b612710600282600a8110610e4a57610e4961194a565b5b0154610e5691906119f1565b821115610e98576040517f08c379a0000000000000000000000000000000000000000000000000000000008152600401610e8f90611d7e565b60405180910390fd5b81600282600a8110610ead57610eac61194a565b5b01819055505050565b610a8680611d9f83390190565b600082825260208201905092915050565b7f2172656365697665000000000000000000000000000000000000000000000000600082015250565b6000610f0a600883610ec3565b9150610f1582610ed4565b602082019050919050565b60006020820190508181036000830152610f3981610efd565b9050919050565b600073ffffffffffffffffffffffffffffffffffffffff82169050919050565b6000610f6b82610f40565b9050919050565b610f7b81610f60565b82525050565b6000819050919050565b610f9481610f81565b82525050565b600082825260208201905092915050565b82818337600083830152505050565b6000601f19601f8301169050919050565b6000610fd78385610f9a565b9350610fe4838584610fab565b610fed83610fba565b840190509392505050565b600060608201905061100d6000830187610f72565b61101a6020830186610f8b565b818103604083015261102d818486610fcb565b905095945050505050565b600080fd5b600080fd5b61104b81610f60565b811461105657600080fd5b50565b60008135905061106881611042565b92915050565b61107781610f81565b811461108257600080fd5b50565b6000813590506110948161106e565b92915050565b600080fd5b600080fd5b600080fd5b60008083601f8401126110bf576110be61109a565b5b8235905067ffffffffffffffff8111156110dc576110db61109f565b5b6020830191508360018202830111156110f8576110f76110a4565b5b9250929050565b600080600080600080600060c0888a03121561111e5761111d611038565b5b600061112c8a828b01611059565b975050602061113d8a828b01611085565b965050604061114e8a828b01611059565b955050606061115f8a828b01611085565b94505060806111708a828b01611085565b93505060a088013567ffffffffffffffff8111156111915761119061103d565b5b61119d8a828b016110a9565b925092505092959891949750929550565b6000602082840312156111c4576111c3611038565b5b60006111d284828501611085565b91505092915050565b60006020820190506111f06000830184610f72565b92915050565b600061120182610f40565b9050919050565b611211816111f6565b811461121c57600080fd5b50565b60008135905061122e81611208565b92915050565b6000806040838503121561124b5761124a611038565b5b60006112598582860161121f565b925050602061126a85828601611059565b9150509250929050565b60008060008060008060008060c0898b03121561129457611293611038565b5b60006112a28b828c01611059565b98505060206112b38b828c01611085565b975050604089013567ffffffffffffffff8111156112d4576112d361103d565b5b6112e08b828c016110a9565b965096505060606112f38b828c01611085565b94505060806113048b828c01611085565b93505060a089013567ffffffffffffffff8111156113255761132461103d565b5b6113318b828c016110a9565b92509250509295985092959890939650565b60006020828403121561135957611358611038565b5b600061136784828501611059565b91505092915050565b60008115159050919050565b61138581611370565b82525050565b60006020820190506113a0600083018461137c565b92915050565b60006020820190506113bb6000830184610f8b565b92915050565b7f217369676e657200000000000000000000000000000000000000000000000000600082015250565b60006113f7600783610ec3565b9150611402826113c1565b602082019050919050565b60006020820190508181036000830152611426816113ea565b9050919050565b600081905092915050565b7f4552433230000000000000000000000000000000000000000000000000000000600082015250565b600061146e60058361142d565b915061147982611438565b600582019050919050565b60008160601b9050919050565b600061149c82611484565b9050919050565b60006114ae82611491565b9050919050565b6114c66114c182610f60565b6114a3565b82525050565b6000819050919050565b6114e76114e282610f81565b6114cc565b82525050565b60006114f882611461565b915061150482886114b5565b60148201915061151482876114d6565b60208201915061152482866114b5565b60148201915061153482856114d6565b60208201915061154482846114d6565b6020820191508190509695505050505050565b600081519050919050565b600081905092915050565b60005b8381101561158b578082015181840152602081019050611570565b8381111561159a576000848401525b50505050565b60006115ab82611557565b6115b58185611562565b93506115c581856020860161156d565b80840191505092915050565b6000819050919050565b6000819050919050565b6115f66115f1826115d1565b6115db565b82525050565b600061160882856115a0565b915061161482846115e5565b6020820191508190509392505050565b60006040820190506116396000830185610f72565b6116466020830184610f8b565b9392505050565b61165681611370565b811461166157600080fd5b50565b6000815190506116738161164d565b92915050565b60006020828403121561168f5761168e611038565b5b600061169d84828501611664565b91505092915050565b7f217472616e736665720000000000000000000000000000000000000000000000600082015250565b60006116dc600983610ec3565b91506116e7826116a6565b602082019050919050565b6000602082019050818103600083015261170b816116cf565b9050919050565b61171b816115d1565b82525050565b600060c0820190506117366000830189610f72565b6117436020830188610f72565b6117506040830187611712565b61175d6060830186610f72565b61176a6080830185610f8b565b61177760a0830184610f72565b979650505050505050565b7f4554484552000000000000000000000000000000000000000000000000000000600082015250565b60006117b860058361142d565b91506117c382611782565b600582019050919050565b60006117da8385611562565b93506117e7838584610fab565b82840190509392505050565b60006117fe826117ab565b915061180a82896114b5565b60148201915061181a82886114d6565b60208201915061182b8286886117ce565b915061183782856114d6565b60208201915061184782846114d6565b602082019150819050979650505050505050565b60006118688284866117ce565b91508190509392505050565b7f2173656e644d756c746953696700000000000000000000000000000000000000600082015250565b60006118aa600d83610ec3565b91506118b582611874565b602082019050919050565b600060208201905081810360008301526118d98161189d565b9050919050565b600060c0820190506118f5600083018a610f72565b6119026020830189610f72565b61190f6040830188611712565b61191c6060830187610f72565b6119296080830186610f8b565b81810360a083015261193c818486610fcb565b905098975050505050505050565b7f4e487b7100000000000000000000000000000000000000000000000000000000600052603260045260246000fd5b7f4e487b7100000000000000000000000000000000000000000000000000000000600052601160045260246000fd5b60006119b382610f81565b91507fffffffffffffffffffffffffffffffffffffffffffffffffffffffffffffffff8214156119e6576119e5611979565b5b600182019050919050565b60006119fc82610f81565b9150611a0783610f81565b9250827fffffffffffffffffffffffffffffffffffffffffffffffffffffffffffffffff03821115611a3c57611a3b611979565b5b828201905092915050565b6000606082019050611a5c6000830186610f72565b611a696020830185610f72565b611a766040830184610f8b565b949350505050565b7f6e6f74207369676e657200000000000000000000000000000000000000000000600082015250565b6000611ab4600a83610ec3565b9150611abf82611a7e565b602082019050919050565b60006020820190508181036000830152611ae381611aa7565b9050919050565b7f6578706972656400000000000000000000000000000000000000000000000000600082015250565b6000611b20600783610ec3565b9150611b2b82611aea565b602082019050919050565b60006020820190508181036000830152611b4f81611b13565b9050919050565b7f216f746865720000000000000000000000000000000000000000000000000000600082015250565b6000611b8c600683610ec3565b9150611b9782611b56565b602082019050919050565b60006020820190508181036000830152611bbb81611b7f565b9050919050565b7f216c656e67746800000000000000000000000000000000000000000000000000600082015250565b6000611bf8600783610ec3565b9150611c0382611bc2565b602082019050919050565b60006020820190508181036000830152611c2781611beb565b9050919050565b600060ff82169050919050565b6000611c4682611c2e565b9150611c5183611c2e565b92508260ff03821115611c6757611c66611979565b5b828201905092915050565b611c7b81611c2e565b82525050565b6000608082019050611c966000830187611712565b611ca36020830186611c72565b611cb06040830185611712565b611cbd6060830184611712565b95945050505050565b7f2165710000000000000000000000000000000000000000000000000000000000600082015250565b6000611cfc600383610ec3565b9150611d0782611cc6565b602082019050919050565b60006020820190508181036000830152611d2b81611cef565b9050919050565b7f2173657175656e63650000000000000000000000000000000000000000000000600082015250565b6000611d68600983610ec3565b9150611d7382611d32565b602082019050919050565b60006020820190508181036000830152611d9781611d5b565b905091905056fe608060405234801561001057600080fd5b50336000806101000a81548173ffffffffffffffffffffffffffffffffffffffff021916908373ffffffffffffffffffffffffffffffffffffffff160217905550610a26806100606000396000f3fe6080604052600436106100375760003560e01c8062821de3146101925780633ef13367146101bd5780636b9f96ea146101e65761007f565b3661007f57600061007d576040517f08c379a0000000000000000000000000000000000000000000000000000000008152600401610074906105b0565b60405180910390fd5b005b60008060009054906101000a900473ffffffffffffffffffffffffffffffffffffffff1673ffffffffffffffffffffffffffffffffffffffff16346000366040516100cb92919061060f565b60006040518083038185875af1925050503d8060008114610108576040519150601f19603f3d011682016040523d82523d6000602084013e61010d565b606091505b5050905080610151576040517f08c379a0000000000000000000000000000000000000000000000000000000008152600401610148906105b0565b60405180910390fd5b7f69b31548dea9b3b707b4dff357d326e3e9348b24e7a6080a218a6edeeec48f9b333460003660405161018794939291906106d1565b60405180910390a150005b34801561019e57600080fd5b506101a76101fd565b6040516101b49190610711565b60405180910390f35b3480156101c957600080fd5b506101e460048036038101906101df919061075d565b610221565b005b3480156101f257600080fd5b506101fb610483565b005b60008054906101000a900473ffffffffffffffffffffffffffffffffffffffff1681565b60008054906101000a900473ffffffffffffffffffffffffffffffffffffffff1673ffffffffffffffffffffffffffffffffffffffff163373ffffffffffffffffffffffffffffffffffffffff16146102af576040517f08c379a00000000000000000000000000000000000000000000000000000000081526004016102a6906107d6565b60405180910390fd5b6000819050600030905060008273ffffffffffffffffffffffffffffffffffffffff166370a08231836040518263ffffffff1660e01b81526004016102f49190610711565b60206040518083038186803b15801561030c57600080fd5b505afa158015610320573d6000803e3d6000fd5b505050506040513d601f19601f820116820180604052508101906103449190610822565b9050600081141561035757505050610480565b8273ffffffffffffffffffffffffffffffffffffffff1663a9059cbb60008054906101000a900473ffffffffffffffffffffffffffffffffffffffff16836040518363ffffffff1660e01b81526004016103b292919061084f565b602060405180830381600087803b1580156103cc57600080fd5b505af11580156103e0573d6000803e3d6000fd5b505050506040513d601f19601f8201168201806040525081019061040491906108b0565b610443576040517f08c379a000000000000000000000000000000000000000000000000000000000815260040161043a90610929565b60405180910390fd5b7f9401e4e79c19cbe2bd774cb70a94ba660e6718be1bac1298ab3b07f454a60821848260405161047492919061084f565b60405180910390a15050505b50565b60008060009054906101000a900473ffffffffffffffffffffffffffffffffffffffff1673ffffffffffffffffffffffffffffffffffffffff16476040516104ca9061096f565b60006040518083038185875af1925050503d8060008114610507576040519150601f19603f3d011682016040523d82523d6000602084013e61050c565b606091505b5050905080610550576040517f08c379a0000000000000000000000000000000000000000000000000000000008152600401610547906109d0565b60405180910390fd5b50565b600082825260208201905092915050565b7f2172656365697665000000000000000000000000000000000000000000000000600082015250565b600061059a600883610553565b91506105a582610564565b602082019050919050565b600060208201905081810360008301526105c98161058d565b9050919050565b600081905092915050565b82818337600083830152505050565b60006105f683856105d0565b93506106038385846105db565b82840190509392505050565b600061061c8284866105ea565b91508190509392505050565b600073ffffffffffffffffffffffffffffffffffffffff82169050919050565b600061065382610628565b9050919050565b61066381610648565b82525050565b6000819050919050565b61067c81610669565b82525050565b600082825260208201905092915050565b6000601f19601f8301169050919050565b60006106b08385610682565b93506106bd8385846105db565b6106c683610693565b840190509392505050565b60006060820190506106e6600083018761065a565b6106f36020830186610673565b81810360408301526107068184866106a4565b905095945050505050565b6000602082019050610726600083018461065a565b92915050565b600080fd5b61073a81610648565b811461074557600080fd5b50565b60008135905061075781610731565b92915050565b6000602082840312156107735761077261072c565b5b600061078184828501610748565b91505092915050565b7f21706172656e7400000000000000000000000000000000000000000000000000600082015250565b60006107c0600783610553565b91506107cb8261078a565b602082019050919050565b600060208201905081810360008301526107ef816107b3565b9050919050565b6107ff81610669565b811461080a57600080fd5b50565b60008151905061081c816107f6565b92915050565b6000602082840312156108385761083761072c565b5b60006108468482850161080d565b91505092915050565b6000604082019050610864600083018561065a565b6108716020830184610673565b9392505050565b60008115159050919050565b61088d81610878565b811461089857600080fd5b50565b6000815190506108aa81610884565b92915050565b6000602082840312156108c6576108c561072c565b5b60006108d48482850161089b565b91505092915050565b7f217472616e736665720000000000000000000000000000000000000000000000600082015250565b6000610913600983610553565b915061091e826108dd565b602082019050919050565b6000602082019050818103600083015261094281610906565b9050919050565b50565b60006109596000836105d0565b915061096482610949565b600082019050919050565b600061097a8261094c565b9150819050919050565b7f21666c7573680000000000000000000000000000000000000000000000000000600082015250565b60006109ba600683610553565b91506109c582610984565b602082019050919050565b600060208201905081810360008301526109e9816109ad565b905091905056fea2646970667358221220919bd41ed1b45a40b58e3a58152732f668941cb7651c9e40b9816edae01e5b5464736f6c63430008090033a2646970667358221220bb2c5cf1a259af81ed2123cc4cec6ff276f68d9edc89bebb53a193e2bc8a58a764736f6c63430008090033",
  "linkReferences": {},
  "deployedLinkReferences": {}
}